{
  "contractName": "CryptoRun",
  "abi": [
    {
      "constant": true,
      "inputs": [],
      "name": "challengeStatus",
      "outputs": [
        {
          "name": "",
          "type": "string"
        }
      ],
      "payable": false,
      "stateMutability": "view",
      "type": "function"
    },
    {
      "constant": true,
      "inputs": [
        {
          "name": "",
          "type": "address"
        }
      ],
      "name": "donorsDonations",
      "outputs": [
        {
          "name": "",
          "type": "uint256"
        }
      ],
      "payable": false,
      "stateMutability": "view",
      "type": "function"
    },
    {
      "constant": true,
      "inputs": [],
      "name": "ownerAddress",
      "outputs": [
        {
          "name": "",
          "type": "address"
        }
      ],
      "payable": false,
      "stateMutability": "view",
      "type": "function"
    },
    {
      "constant": true,
      "inputs": [],
      "name": "beCodeAddress",
      "outputs": [
        {
          "name": "",
          "type": "address"
        }
      ],
      "payable": false,
      "stateMutability": "view",
      "type": "function"
    },
    {
      "constant": true,
      "inputs": [],
      "name": "totalDonation",
      "outputs": [
        {
          "name": "",
          "type": "uint256"
        }
      ],
      "payable": false,
      "stateMutability": "view",
      "type": "function"
    },
    {
      "inputs": [],
      "payable": false,
      "stateMutability": "nonpayable",
      "type": "constructor"
    },
    {
      "payable": true,
      "stateMutability": "payable",
      "type": "fallback"
    },
    {
      "anonymous": false,
      "inputs": [
        {
          "indexed": false,
          "name": "deployerAddress",
          "type": "address"
        }
      ],
      "name": "ChallengeStarted",
      "type": "event"
    },
    {
      "anonymous": false,
      "inputs": [
        {
          "indexed": false,
          "name": "donorAddress",
          "type": "address"
        },
        {
          "indexed": false,
          "name": "donationAmount",
          "type": "uint256"
        },
        {
          "indexed": false,
          "name": "totalDonation",
          "type": "uint256"
        }
      ],
      "name": "NewDonation",
      "type": "event"
    },
    {
      "anonymous": false,
      "inputs": [
        {
          "indexed": false,
          "name": "latestStatus",
          "type": "string"
        }
      ],
      "name": "ChallengeStatusRefreshed",
      "type": "event"
    },
    {
      "anonymous": false,
      "inputs": [],
      "name": "ChallengeAccomplished",
      "type": "event"
    },
    {
      "anonymous": false,
      "inputs": [],
      "name": "ChallengeClosed",
      "type": "event"
    },
    {
      "anonymous": false,
      "inputs": [],
      "name": "ChallengeFailed",
      "type": "event"
    },
    {
      "anonymous": false,
      "inputs": [
        {
          "indexed": false,
          "name": "totalDonation",
          "type": "uint256"
        }
      ],
      "name": "DonationAvailableForBeCodeWithdrawal",
      "type": "event"
    },
    {
      "anonymous": false,
      "inputs": [
        {
          "indexed": false,
          "name": "beCodeAddress",
          "type": "address"
        },
        {
          "indexed": false,
          "name": "totalDonation",
          "type": "uint256"
        }
      ],
      "name": "DonationWithdrawnByBeCode",
      "type": "event"
    },
    {
      "anonymous": false,
      "inputs": [
        {
          "indexed": false,
          "name": "totalDonation",
          "type": "uint256"
        }
      ],
      "name": "DonationsAvailableForDonorsWithdrawal",
      "type": "event"
    },
    {
      "anonymous": false,
      "inputs": [
        {
          "indexed": false,
          "name": "donorAddress",
          "type": "address"
        },
        {
          "indexed": false,
          "name": "donorDonation",
          "type": "uint256"
        }
      ],
      "name": "DonationWithdrawnByDonor",
      "type": "event"
    },
    {
      "anonymous": false,
      "inputs": [
        {
          "indexed": false,
          "name": "description",
          "type": "string"
        }
      ],
      "name": "NewOraclizeQuery",
      "type": "event"
    },
    {
      "anonymous": false,
      "inputs": [
        {
          "indexed": false,
          "name": "_queryId",
          "type": "bytes32"
        }
      ],
      "name": "NewOraclizeCallback",
      "type": "event"
    },
    {
      "constant": false,
      "inputs": [],
      "name": "refreshChallengeStatus",
      "outputs": [],
      "payable": false,
      "stateMutability": "nonpayable",
      "type": "function"
    },
    {
      "constant": false,
      "inputs": [
        {
          "name": "_queryId",
          "type": "bytes32"
        },
        {
          "name": "_result",
          "type": "string"
        }
      ],
      "name": "__callback",
      "outputs": [],
      "payable": false,
      "stateMutability": "nonpayable",
      "type": "function"
    },
    {
      "constant": false,
      "inputs": [
        {
          "name": "myid",
          "type": "bytes32"
        },
        {
          "name": "result",
          "type": "string"
        },
        {
          "name": "proof",
          "type": "bytes"
        }
      ],
      "name": "__callback",
      "outputs": [],
      "payable": false,
      "stateMutability": "nonpayable",
      "type": "function"
    },
    {
      "constant": false,
      "inputs": [],
      "name": "withDrawAllDonations",
      "outputs": [],
      "payable": false,
      "stateMutability": "nonpayable",
      "type": "function"
    },
    {
      "constant": false,
      "inputs": [],
      "name": "withdrawDonorDonation",
      "outputs": [],
      "payable": false,
      "stateMutability": "nonpayable",
      "type": "function"
    }
  ],
  "bytecode": "0x606060405233600560006101000a81548173ffffffffffffffffffffffffffffffffffffffff021916908373ffffffffffffffffffffffffffffffffffffffff160217905550739d55c8fea20dea8134ade26ac494c66babe6d5f4600660006101000a81548173ffffffffffffffffffffffffffffffffffffffff021916908373ffffffffffffffffffffffffffffffffffffffff1602179055506040805190810160405280600781526020017f6f6e676f696e670000000000000000000000000000000000000000000000000081525060079080519060200190620000e792919062000162565b5060006008553415620000f957600080fd5b7f0f03ecf6559148df8a1d60ff8ab5928221892779d3572665a112272c5fc8e93033604051808273ffffffffffffffffffffffffffffffffffffffff1673ffffffffffffffffffffffffffffffffffffffff16815260200191505060405180910390a162000211565b828054600181600116156101000203166002900490600052602060002090601f016020900481019282601f10620001a557805160ff1916838001178555620001d6565b82800160010185558215620001d6579182015b82811115620001d5578251825591602001919060010190620001b8565b5b509050620001e59190620001e9565b5090565b6200020e91905b808211156200020a576000816000905550600101620001f0565b5090565b90565b61249480620002216000396000f3006060604052600436106100a4576000357c0100000000000000000000000000000000000000000000000000000000900463ffffffff16806303cd88801461026a57806310a62a61146102f857806327dc297e1461034557806338bbfa50146103af5780636fc0e3461461045c5780638f84aa09146104715780639f905b38146104c6578063db697d84146104db578063e7cab98514610530578063ee2ac05f14610545575b60008060405180807f6f6e676f696e670000000000000000000000000000000000000000000000000081525060070190506040518091039020600019166007604051808280546001816001161561010002031660029004801561013e5780601f1061011c57610100808354040283529182019161013e565b820191906000526020600020905b81548152906001019060200180831161012a575b505091505060405180910390206000191614151561015b57600080fd5b600960003373ffffffffffffffffffffffffffffffffffffffff1673ffffffffffffffffffffffffffffffffffffffff168152602001908152602001600020549150348201600960003373ffffffffffffffffffffffffffffffffffffffff1673ffffffffffffffffffffffffffffffffffffffff1681526020019081526020016000208190555060085490503481016008819055507f0d968ed0843603b466b27a4b0092affa11344caafe6d80e695c16ef623fd42bd3334600854604051808473ffffffffffffffffffffffffffffffffffffffff1673ffffffffffffffffffffffffffffffffffffffff168152602001838152602001828152602001935050505060405180910390a15050005b341561027557600080fd5b61027d61056e565b6040518080602001828103825283818151815260200191508051906020019080838360005b838110156102bd5780820151818401526020810190506102a2565b50505050905090810190601f1680156102ea5780820380516001836020036101000a031916815260200191505b509250505060405180910390f35b341561030357600080fd5b61032f600480803573ffffffffffffffffffffffffffffffffffffffff1690602001909190505061060c565b6040518082815260200191505060405180910390f35b341561035057600080fd5b6103ad60048080356000191690602001909190803590602001908201803590602001908080601f01602080910402602001604051908101604052809392919081815260200183838082843782019150505050505091905050610624565b005b34156103ba57600080fd5b61045a60048080356000191690602001909190803590602001908201803590602001908080601f0160208091040260200160405190810160405280939291908181526020018383808284378201915050505050509190803590602001908201803590602001908080601f01602080910402602001604051908101604052809392919081815260200183838082843782019150505050505091905050610ad0565b005b341561046757600080fd5b61046f610ad5565b005b341561047c57600080fd5b610484610d38565b604051808273ffffffffffffffffffffffffffffffffffffffff1673ffffffffffffffffffffffffffffffffffffffff16815260200191505060405180910390f35b34156104d157600080fd5b6104d9610d5e565b005b34156104e657600080fd5b6104ee611108565b604051808273ffffffffffffffffffffffffffffffffffffffff1673ffffffffffffffffffffffffffffffffffffffff16815260200191505060405180910390f35b341561053b57600080fd5b61054361112e565b005b341561055057600080fd5b610558611395565b6040518082815260200191505060405180910390f35b60078054600181600116156101000203166002900480601f0160208091040260200160405190810160405280929190818152602001828054600181600116156101000203166002900480156106045780601f106105d957610100808354040283529160200191610604565b820191906000526020600020905b8154815290600101906020018083116105e757829003601f168201915b505050505081565b60096020528060005260406000206000915090505481565b61062c6123af565b61063461139b565b73ffffffffffffffffffffffffffffffffffffffff163373ffffffffffffffffffffffffffffffffffffffff1614151561066d57600080fd5b8190507fa1231bf2cfdb31a52fa9bc11c258a3bc36331acafc338261e6ae09e66d6803e68360405180826000191660001916815260200191505060405180910390a17fec23772dbc21a009d320a202ec868d63e8f219aa37ff0dd5d69d7917056fd4a2816040518080602001828103825283818151815260200191508051906020019080838360005b838110156107115780820151818401526020810190506106f6565b50505050905090810190601f16801561073e5780820380516001836020036101000a031916815260200191505b509250505060405180910390a160405180807f6f6e676f696e67000000000000000000000000000000000000000000000000008152506007019050604051809103902060001916816040518082805190602001908083835b6020831015156107bb5780518252602082019150602081019050602083039250610796565b6001836020036101000a0380198251168184511680821785525050505050509050019150506040518091039020600019161415610843576040805190810160405280600781526020017f6f6e676f696e67000000000000000000000000000000000000000000000000008152506007908051906020019061083d9291906123c3565b50610acb565b60405180807f6163636f6d706c69736865640000000000000000000000000000000000000000815250600c019050604051809103902060001916816040518082805190602001908083835b6020831015156108b3578051825260208201915060208101905060208303925061088e565b6001836020036101000a03801982511681845116808217855250505050505090500191505060405180910390206000191614156109a0576040805190810160405280600c81526020017f6163636f6d706c69736865640000000000000000000000000000000000000000815250600790805190602001906109359291906123c3565b507fccf488cfed60510741d16380116ea7f1879236f23cec4a1eeae19090fef31c0f60405160405180910390a17fbcb3a03288206a1e994128732326e430f22729710fa0ed27617c75dc1e8ae4f76008546040518082815260200191505060405180910390a1610aca565b60405180807f6661696c656400000000000000000000000000000000000000000000000000008152506006019050604051809103902060001916816040518082805190602001908083835b602083101515610a1057805182526020820191506020810190506020830392506109eb565b6001836020036101000a0380198251168184511680821785525050505050509050019150506040518091039020600019161415610ac4576040805190810160405280600681526020017f6661696c6564000000000000000000000000000000000000000000000000000081525060079080519060200190610a929291906123c3565b507f85637c14ac4bda9dacefe806eb1c30c71998017a5e41c3d2d3e6a52577bc552f60405160405180910390a1610ac9565b600080fd5b5b5b505050565b505050565b600660009054906101000a900473ffffffffffffffffffffffffffffffffffffffff1673ffffffffffffffffffffffffffffffffffffffff163373ffffffffffffffffffffffffffffffffffffffff16141515610b3157600080fd5b60405180807f6163636f6d706c69736865640000000000000000000000000000000000000000815250600c01905060405180910390206000191660076040518082805460018160011615610100020316600290048015610bc85780601f10610ba6576101008083540402835291820191610bc8565b820191906000526020600020905b815481529060010190602001808311610bb4575b5050915050604051809103902060001916141515610be557600080fd5b6040805190810160405280600681526020017f636c6f736564000000000000000000000000000000000000000000000000000081525060079080519060200190610c309291906123c3565b507f9990403ba32485eb403076bc1febe59afe3d1761c103db93a751e417141611df333073ffffffffffffffffffffffffffffffffffffffff1631604051808373ffffffffffffffffffffffffffffffffffffffff1673ffffffffffffffffffffffffffffffffffffffff1681526020018281526020019250505060405180910390a17f75f9c4cb5b0b894c5e68213b5178fa92b01e4b95ce5e4752befa288c6505623f60405160405180910390a13373ffffffffffffffffffffffffffffffffffffffff166108fc3073ffffffffffffffffffffffffffffffffffffffff16319081150290604051600060405180830381858888f193505050501515610d3657600080fd5b565b600560009054906101000a900473ffffffffffffffffffffffffffffffffffffffff1681565b600560009054906101000a900473ffffffffffffffffffffffffffffffffffffffff1673ffffffffffffffffffffffffffffffffffffffff163373ffffffffffffffffffffffffffffffffffffffff161480610e075750600660009054906101000a900473ffffffffffffffffffffffffffffffffffffffff1673ffffffffffffffffffffffffffffffffffffffff163373ffffffffffffffffffffffffffffffffffffffff16145b1515610e1257600080fd5b60405180807f6f6e676f696e6700000000000000000000000000000000000000000000000000815250600701905060405180910390206000191660076040518082805460018160011615610100020316600290048015610ea95780601f10610e87576101008083540402835291820191610ea9565b820191906000526020600020905b815481529060010190602001808311610e95575b5050915050604051809103902060001916141515610ec657600080fd5b3073ffffffffffffffffffffffffffffffffffffffff1631610f1c6040805190810160405280600381526020017f55524c000000000000000000000000000000000000000000000000000000000081525061168a565b1115610fb5577f096835e36c2ccea88ff2b3aca87dfc938b977e52ea656873ff76a8dba50d4d346040518080602001828103825260288152602001807f4f7261636c697a65207175657279204e4f542073656e742c2062616c616e636581526020017f20746f6f206c6f7700000000000000000000000000000000000000000000000081525060400191505060405180910390a1611106565b7f096835e36c2ccea88ff2b3aca87dfc938b977e52ea656873ff76a8dba50d4d346040518080602001828103825260238152602001807f4f7261636c697a652071756572792073656e742c207374616e64696e6720627981526020017f2e2e2e000000000000000000000000000000000000000000000000000000000081525060400191505060405180910390a16111046040805190810160405280600381526020017f55524c0000000000000000000000000000000000000000000000000000000000815250608060405190810160405280605f81526020017f6a736f6e2868747470733a2f2f706779326178373666392e657865637574652d81526020017f6170692e65752d63656e7472616c2d312e616d617a6f6e6177732e636f6d2f7081526020017f726f642f43727970746f52756e292e6368616c6c656e67655f737461747573008152506119eb565b505b565b600660009054906101000a900473ffffffffffffffffffffffffffffffffffffffff1681565b600060405180807f6661696c656400000000000000000000000000000000000000000000000000008152506006019050604051809103902060001916600760405180828054600181600116156101000203166002900480156111c75780601f106111a55761010080835404028352918201916111c7565b820191906000526020600020905b8154815290600101906020018083116111b3575b50509150506040518091039020600019161415156111e457600080fd5b600960003373ffffffffffffffffffffffffffffffffffffffff1673ffffffffffffffffffffffffffffffffffffffff1681526020019081526020016000205490506000600960003373ffffffffffffffffffffffffffffffffffffffff1673ffffffffffffffffffffffffffffffffffffffff168152602001908152602001600020819055507f5fb82f66f650b6ffbf2261b823a16e9b3f4ac76d602d84cd3110a9e9d3a043dd3382604051808373ffffffffffffffffffffffffffffffffffffffff1673ffffffffffffffffffffffffffffffffffffffff1681526020018281526020019250505060405180910390a1803073ffffffffffffffffffffffffffffffffffffffff1631111561133a573373ffffffffffffffffffffffffffffffffffffffff166108fc829081150290604051600060405180830381858888f19350505050151561133557600080fd5b611392565b3373ffffffffffffffffffffffffffffffffffffffff166108fc3073ffffffffffffffffffffffffffffffffffffffff16319081150290604051600060405180830381858888f19350505050151561139157600080fd5b5b50565b60085481565b6000806000809054906101000a900473ffffffffffffffffffffffffffffffffffffffff1673ffffffffffffffffffffffffffffffffffffffff16148061140b575060006114096000809054906101000a900473ffffffffffffffffffffffffffffffffffffffff16611ef9565b145b1561141c5761141a6000611f04565b505b6000809054906101000a900473ffffffffffffffffffffffffffffffffffffffff1673ffffffffffffffffffffffffffffffffffffffff166338cc48316040518163ffffffff167c0100000000000000000000000000000000000000000000000000000000028152600401602060405180830381600087803b15156114a057600080fd5b5af115156114ad57600080fd5b5050506040518051905073ffffffffffffffffffffffffffffffffffffffff16600160009054906101000a900473ffffffffffffffffffffffffffffffffffffffff1673ffffffffffffffffffffffffffffffffffffffff161415156115e9576000809054906101000a900473ffffffffffffffffffffffffffffffffffffffff1673ffffffffffffffffffffffffffffffffffffffff166338cc48316040518163ffffffff167c0100000000000000000000000000000000000000000000000000000000028152600401602060405180830381600087803b151561159157600080fd5b5af1151561159e57600080fd5b50505060405180519050600160006101000a81548173ffffffffffffffffffffffffffffffffffffffff021916908373ffffffffffffffffffffffffffffffffffffffff1602179055505b600160009054906101000a900473ffffffffffffffffffffffffffffffffffffffff1673ffffffffffffffffffffffffffffffffffffffff1663c281d19e6040518163ffffffff167c0100000000000000000000000000000000000000000000000000000000028152600401602060405180830381600087803b151561166e57600080fd5b5af1151561167b57600080fd5b50505060405180519050905090565b6000806000809054906101000a900473ffffffffffffffffffffffffffffffffffffffff1673ffffffffffffffffffffffffffffffffffffffff1614806116fa575060006116f86000809054906101000a900473ffffffffffffffffffffffffffffffffffffffff16611ef9565b145b1561170b576117096000611f04565b505b6000809054906101000a900473ffffffffffffffffffffffffffffffffffffffff1673ffffffffffffffffffffffffffffffffffffffff166338cc48316040518163ffffffff167c0100000000000000000000000000000000000000000000000000000000028152600401602060405180830381600087803b151561178f57600080fd5b5af1151561179c57600080fd5b5050506040518051905073ffffffffffffffffffffffffffffffffffffffff16600160009054906101000a900473ffffffffffffffffffffffffffffffffffffffff1673ffffffffffffffffffffffffffffffffffffffff161415156118d8576000809054906101000a900473ffffffffffffffffffffffffffffffffffffffff1673ffffffffffffffffffffffffffffffffffffffff166338cc48316040518163ffffffff167c0100000000000000000000000000000000000000000000000000000000028152600401602060405180830381600087803b151561188057600080fd5b5af1151561188d57600080fd5b50505060405180519050600160006101000a81548173ffffffffffffffffffffffffffffffffffffffff021916908373ffffffffffffffffffffffffffffffffffffffff1602179055505b600160009054906101000a900473ffffffffffffffffffffffffffffffffffffffff1673ffffffffffffffffffffffffffffffffffffffff1663524f3889836040518263ffffffff167c01000000000000000000000000000000000000000000000000000000000281526004018080602001828103825283818151815260200191508051906020019080838360005b83811015611982578082015181840152602081019050611967565b50505050905090810190601f1680156119af5780820380516001836020036101000a031916815260200191505b5092505050602060405180830381600087803b15156119cd57600080fd5b5af115156119da57600080fd5b505050604051805190509050919050565b60008060008060009054906101000a900473ffffffffffffffffffffffffffffffffffffffff1673ffffffffffffffffffffffffffffffffffffffff161480611a5d57506000611a5b6000809054906101000a900473ffffffffffffffffffffffffffffffffffffffff16611ef9565b145b15611a6e57611a6c6000611f04565b505b6000809054906101000a900473ffffffffffffffffffffffffffffffffffffffff1673ffffffffffffffffffffffffffffffffffffffff166338cc48316040518163ffffffff167c0100000000000000000000000000000000000000000000000000000000028152600401602060405180830381600087803b1515611af257600080fd5b5af11515611aff57600080fd5b5050506040518051905073ffffffffffffffffffffffffffffffffffffffff16600160009054906101000a900473ffffffffffffffffffffffffffffffffffffffff1673ffffffffffffffffffffffffffffffffffffffff16141515611c3b576000809054906101000a900473ffffffffffffffffffffffffffffffffffffffff1673ffffffffffffffffffffffffffffffffffffffff166338cc48316040518163ffffffff167c0100000000000000000000000000000000000000000000000000000000028152600401602060405180830381600087803b1515611be357600080fd5b5af11515611bf057600080fd5b50505060405180519050600160006101000a81548173ffffffffffffffffffffffffffffffffffffffff021916908373ffffffffffffffffffffffffffffffffffffffff1602179055505b600160009054906101000a900473ffffffffffffffffffffffffffffffffffffffff1673ffffffffffffffffffffffffffffffffffffffff1663524f3889856040518263ffffffff167c01000000000000000000000000000000000000000000000000000000000281526004018080602001828103825283818151815260200191508051906020019080838360005b83811015611ce5578082015181840152602081019050611cca565b50505050905090810190601f168015611d125780820380516001836020036101000a031916815260200191505b5092505050602060405180830381600087803b1515611d3057600080fd5b5af11515611d3d57600080fd5b50505060405180519050905062030d403a02670de0b6b3a764000001811115611d6c5760006001029150611ef2565b600160009054906101000a900473ffffffffffffffffffffffffffffffffffffffff1673ffffffffffffffffffffffffffffffffffffffff1663adf59f9982600087876040518563ffffffff167c0100000000000000000000000000000000000000000000000000000000028152600401808481526020018060200180602001838103835285818151815260200191508051906020019080838360005b83811015611e24578082015181840152602081019050611e09565b50505050905090810190601f168015611e515780820380516001836020036101000a031916815260200191505b50838103825284818151815260200191508051906020019080838360005b83811015611e8a578082015181840152602081019050611e6f565b50505050905090810190601f168015611eb75780820380516001836020036101000a031916815260200191505b50955050505050506020604051808303818588803b1515611ed757600080fd5b5af11515611ee457600080fd5b505050506040518051905091505b5092915050565b6000813b9050919050565b600080611f24731d3b2638a7cc9f2cb3d298a3da7a90b67e5506ed611ef9565b1115611fc557731d3b2638a7cc9f2cb3d298a3da7a90b67e5506ed6000806101000a81548173ffffffffffffffffffffffffffffffffffffffff021916908373ffffffffffffffffffffffffffffffffffffffff160217905550611fbc6040805190810160405280600b81526020017f6574685f6d61696e6e6574000000000000000000000000000000000000000000815250612395565b60019050612390565b6000611fe473c03a2615d5efaf5f49f60b7bb6583eaec212fdf1611ef9565b11156120855773c03a2615d5efaf5f49f60b7bb6583eaec212fdf16000806101000a81548173ffffffffffffffffffffffffffffffffffffffff021916908373ffffffffffffffffffffffffffffffffffffffff16021790555061207c6040805190810160405280600c81526020017f6574685f726f707374656e330000000000000000000000000000000000000000815250612395565b60019050612390565b60006120a473b7a07bcf2ba2f2703b24c0691b5278999c59ac7e611ef9565b11156121455773b7a07bcf2ba2f2703b24c0691b5278999c59ac7e6000806101000a81548173ffffffffffffffffffffffffffffffffffffffff021916908373ffffffffffffffffffffffffffffffffffffffff16021790555061213c6040805190810160405280600981526020017f6574685f6b6f76616e0000000000000000000000000000000000000000000000815250612395565b60019050612390565b600061216473146500cfd35b22e4a392fe0adc06de1a1368ed48611ef9565b11156122055773146500cfd35b22e4a392fe0adc06de1a1368ed486000806101000a81548173ffffffffffffffffffffffffffffffffffffffff021916908373ffffffffffffffffffffffffffffffffffffffff1602179055506121fc6040805190810160405280600b81526020017f6574685f72696e6b656279000000000000000000000000000000000000000000815250612395565b60019050612390565b6000612224736f485c8bf6fc43ea212e93bbf8ce046c7f1cb475611ef9565b111561228757736f485c8bf6fc43ea212e93bbf8ce046c7f1cb4756000806101000a81548173ffffffffffffffffffffffffffffffffffffffff021916908373ffffffffffffffffffffffffffffffffffffffff16021790555060019050612390565b60006122a67320e12a1f859b3feae5fb2a0a32c18f5a65555bbf611ef9565b1115612309577320e12a1f859b3feae5fb2a0a32c18f5a65555bbf6000806101000a81548173ffffffffffffffffffffffffffffffffffffffff021916908373ffffffffffffffffffffffffffffffffffffffff16021790555060019050612390565b60006123287351efaf4c8b3c9afbd5ab9f4bbc82784ab6ef8faa611ef9565b111561238b577351efaf4c8b3c9afbd5ab9f4bbc82784ab6ef8faa6000806101000a81548173ffffffffffffffffffffffffffffffffffffffff021916908373ffffffffffffffffffffffffffffffffffffffff16021790555060019050612390565b600090505b919050565b80600290805190602001906123ab9291906123c3565b5050565b602060405190810160405280600081525090565b828054600181600116156101000203166002900490600052602060002090601f016020900481019282601f1061240457805160ff1916838001178555612432565b82800160010185558215612432579182015b82811115612431578251825591602001919060010190612416565b5b50905061243f9190612443565b5090565b61246591905b80821115612461576000816000905550600101612449565b5090565b905600a165627a7a72305820aeab09a939867460dceeb321300dac9d0932b5b99a881bfeecfbeec06eb4ce260029",
  "source": "pragma solidity ^0.4.21;\n\n// Import the Oraclize contract code so we can inherit from it\n// Note that in our local test environment, we need to import the .sol file\n// from the environment directly, whereas on the public nets we need to\n// use the github version instead.\n/* import \"github.com/oraclize/ethereum-api/oraclizeAPI.sol\"; */\nimport \"./usingOraclize.sol\";\n\ncontract CryptoRun is usingOraclize {\n  /*\n      VARIABLES - to describe the state of the contract\n   */\n  // The address of the contract owner (Thomas), set when the contract is deployed\n  address public ownerAddress = msg.sender;\n  // The address of BeCode, the non-profit beneficiary that will receive the funds\n  // TODO: use the real address - currently a Rinkeby Testnet address belonging\n  // to Thomas for development & testing purposes\n  address public beCodeAddress = 0x9D55C8FeA20dea8134ade26Ac494C66BABe6D5F4;\n  // The status of the challenge, initialized at deployment to 'ongoing'.\n  // Other statuses are 'accomplished', 'closed' and 'failed'\n  string public challengeStatus = 'ongoing';\n  // Another interesting variable here is the actual amount of funds that are\n  // locked on the contract after donation. In normal contracts, this variable\n  // is implicitly available under the name 'balance'. However here, since we\n  // need to query an external Oracle (the GPS API), the contract needs to pay\n  // a small amount of value at each query, and thus it consumes it own balance.\n  // This means that at the end of the challenge, the amount donated to BeCode\n  // will be a little bit less that the sum of donations. To still be able to\n  // keep track of the total amount donated, we record it with a dedicated\n  // variable that we will increase gradually at each donation. Note that we\n  // could not add the values in the mapping of individual donations, because\n  // a mapping cannot be iterated on for additions or other operations (we\n  // could revert to a more complicated scheme with arrays, but we stick to\n  // our simple single variable).\n  uint public totalDonation = 0;\n  // Keep track of all individual donations, so that donors can withdraw their\n  // funds if the challenge fails\n  mapping (address => uint) public donorsDonations;\n\n  /*\n      EVENTS - for broadcasting a set of logs that we can listen to\n  */\n  // The contract has been deployed, and the challenge can start\n  event ChallengeStarted(address deployerAddress);\n  // A new donor has contributed by sending funds\n  event NewDonation(address donorAddress, uint donationAmount, uint totalDonation);\n  // The challenge status has been refreshed\n  event ChallengeStatusRefreshed(string latestStatus);\n  // The challenge has been accomplished\n  event ChallengeAccomplished();\n  // The challenge has been closed (after all donations have been withdrawn)\n  event ChallengeClosed();\n  // The challenge has failed\n  event ChallengeFailed();\n  // The funds are available for BeCode to withdraw them (will only be broadcast\n  // if the challenge is successful)\n  event DonationAvailableForBeCodeWithdrawal(uint totalDonation);\n  // BeCode has withdrawn the funds\n  event DonationWithdrawnByBeCode(address beCodeAddress, uint totalDonation);\n  // The funds are available for the donors to withdraw (will only be broadcast\n  // if the challenge has failed)\n  event DonationsAvailableForDonorsWithdrawal(uint totalDonation);\n  // One of the donors has withdrawn their funds\n  event DonationWithdrawnByDonor(address donorAddress, uint donorDonation);\n  // Oraclize technical event\n  event NewOraclizeQuery(string description);\n  event NewOraclizeCallback(bytes32 _queryId);\n\n  /*\n      FUNCTION MODIFIERS - to set specific permissions for contract functions\n  */\n  // For functions that can only by executed by the owner of the contract, who\n  // will be the person that deploys it (Thomas from Cryptizens.io)\n  modifier onlyByOwner {\n      require(msg.sender == ownerAddress);\n      _;\n  }\n  // For functions that can only be executed by BeCode, the non-profit\n  // beneficiary of the funds\n  modifier onlyByBeCode {\n      require(msg.sender == beCodeAddress);\n      _;\n  }\n  // For functions that can only be executed either the owner or by BeCode\n  modifier onlyByOrganizers {\n      require((msg.sender == ownerAddress) || (msg.sender == beCodeAddress));\n      _;\n  }\n  // For functions that can only be executed by the Oracle (the address method\n  // in the assertion is inherited from the usingOraclize parent contract)\n  modifier onlyByOracle {\n      require (msg.sender == oraclize_cbAddress());\n      _;\n  }\n  // For functions that can only be executed when the challenge is ongoing\n  // Note that pure string comparison is not yet supported in Solidity and\n  // one has to hash them first then compare their hashes\n  modifier onlyWhenOngoing {\n      require(keccak256(challengeStatus) == keccak256('ongoing'));\n      _;\n  }\n  // For functions that can only be executed when the challenge is accomplished\n  modifier onlyWhenAccomplished {\n      require(keccak256(challengeStatus) == keccak256('accomplished'));\n      _;\n  }\n  // For functions that can only be executed when the challenge is failed\n  modifier onlyWhenFailed {\n      require(keccak256(challengeStatus) == keccak256('failed'));\n      _;\n  }\n\n  /*\n      FUNCTIONS - to implement the behavior of the contract\n  */\n  // The constructor functions, called when the contract is deployed\n  function CryptoRun() public {\n    emit ChallengeStarted(msg.sender);\n  }\n\n  // The fallback function called anytime someone sends value to the contract\n  // This is the 'donate()' function. But we cannot call it donate() because\n  // we need a nameless function to be able to send Ether directly from any\n  // wallet without having to know about the contract interface.\n  function () public payable onlyWhenOngoing {\n    // Add the individual donor balance\n    uint currentDonorDonation = donorsDonations[msg.sender];\n    donorsDonations[msg.sender] = currentDonorDonation + msg.value;\n    // Increase the total funds donated\n    uint currentTotalDonation = totalDonation;\n    totalDonation = currentTotalDonation + msg.value;\n    // Log the donation, along with the new total value of funds donated\n    emit NewDonation(msg.sender, msg.value, totalDonation);\n  }\n\n  // The querying function that will trigger the Oracle to check whether the\n  // challenge has been accomplished\n  function refreshChallengeStatus() public onlyByOrganizers onlyWhenOngoing {\n    // Call to the Oraclize API\n    if (oraclize_getPrice(\"URL\") > address(this).balance) {\n        emit NewOraclizeQuery(\"Oraclize query NOT sent, balance too low\");\n    } else {\n        emit NewOraclizeQuery(\"Oraclize query sent, standing by...\");\n        oraclize_query(\"URL\", \"json(https://pgy2ax76f9.execute-api.eu-central-1.amazonaws.com/prod/CryptoRun).challenge_status\");\n    }\n  }\n\n  // The callback function that will be invoked by the Oracle after it has\n  // fetched the latest challenge status\n  function __callback(bytes32 _queryId, string _result) public onlyByOracle {\n    // Assert whether success or not, and update contract state accordingly\n    string memory latestStatus = _result;\n\n    emit NewOraclizeCallback(_queryId);\n    emit ChallengeStatusRefreshed(latestStatus);\n\n    if (keccak256(latestStatus) == keccak256('ongoing')) {\n      challengeStatus = 'ongoing';\n    } else if (keccak256(latestStatus) == keccak256('accomplished')) {\n      challengeStatus = 'accomplished';\n      emit ChallengeAccomplished();\n      emit DonationAvailableForBeCodeWithdrawal(totalDonation);\n    } else if (keccak256(latestStatus) == keccak256('failed')) {\n      challengeStatus = 'failed';\n      emit ChallengeFailed();\n    } else {\n      revert();\n    }\n  }\n\n  // The BeCode funds withdrawal function - note that we use a withdrawal pattern\n  // here (the transfer must be triggered by the funds claimer, and will not\n  // be triggered automatically by the contract), as it is known to be much\n  // safer (cf. Solidity documentation)\n  function withDrawAllDonations() public onlyByBeCode onlyWhenAccomplished {\n    // Close the challenge\n    challengeStatus = 'closed';\n    // Broadcast the closing and withdrawal events\n    emit DonationWithdrawnByBeCode(msg.sender, address(this).balance);\n    emit ChallengeClosed();\n    // Transfer the remaning contract balance to BeCode\n    msg.sender.transfer(address(this).balance);\n  }\n\n  // The individual donors withdrawal functions (so that they can withdraw\n  // their value if the challenge is a failure)\n  function withdrawDonorDonation() public onlyWhenFailed {\n    // Retrieve the amount already contributed\n    uint donation = donorsDonations[msg.sender];\n    // Set this amount to zero\n    donorsDonations[msg.sender] = 0;\n    // Broadcast the withdrawal event\n    emit DonationWithdrawnByDonor(msg.sender, donation);\n    // Transfer the funds to the individual donor. Note that the very last donor\n    // to withdraw her funds will meet a contract balance that is lower than\n    // the funds she will have contributed. This is because the balance has\n    // been slightly depleted by the calls to the Oracle that do consume value.\n    // To ensure that the donor can still get this remaining balance, we use\n    // a little conditional flow here. Otherwise we would end up trying to\n    // transfer an amount greater than the balance and it would trigger an\n    // error, thereby actually locking the funds on the contract!\n    if (address(this).balance > donation) {\n      msg.sender.transfer(donation);\n    } else {\n      msg.sender.transfer(address(this).balance);\n    }\n  }\n}\n",
  "sourcePath": "/Users/thomasvanderstraeten/code/blockchain/cryptorun-back/smart-contract/contracts/CryptoRun.sol",
  "compiler": {
    "name": "solc",
    "version": "0.4.21+commit.dfe3193c.Emscripten.clang"
  },
  "schemaVersion": "2.0.0",
  "updatedAt": "2018-04-15T11:31:49.648Z"
}